{
    "contractName": "CheckAmount",
    "abi": [
        {
            "inputs": [
                {
                    "internalType": "address",
                    "name": "_token",
                    "type": "address"
                },
                {
                    "internalType": "address",
                    "name": "_sender",
                    "type": "address"
                },
                {
                    "internalType": "uint256",
                    "name": "_amount",
                    "type": "uint256"
                }
            ],
            "name": "check",
            "outputs": [
                {
                    "internalType": "bool",
                    "name": "isTransfer",
                    "type": "bool"
                },
                {
                    "internalType": "uint256",
                    "name": "amount",
                    "type": "uint256"
                }
            ],
            "stateMutability": "view",
            "type": "function",
            "constant": true
        }
    ],
    "bytecode": "0x608060405234801561001057600080fd5b5061035a806100206000396000f3fe608060405234801561001057600080fd5b506004361061002b5760003560e01c8063b2e0962414610030575b600080fd5b61004a60048036038101906100459190610204565b610061565b604051610058929190610281565b60405180910390f35b600080828573ffffffffffffffffffffffffffffffffffffffff1663dd62ed3e86306040518363ffffffff1660e01b81526004016100a09291906102b9565b602060405180830381865afa1580156100bd573d6000803e3d6000fd5b505050506040513d601f19601f820116820180604052508101906100e191906102f7565b10158573ffffffffffffffffffffffffffffffffffffffff1663dd62ed3e86306040518363ffffffff1660e01b815260040161011e9291906102b9565b602060405180830381865afa15801561013b573d6000803e3d6000fd5b505050506040513d601f19601f8201168201806040525081019061015f91906102f7565b91509150935093915050565b600080fd5b600073ffffffffffffffffffffffffffffffffffffffff82169050919050565b600061019b82610170565b9050919050565b6101ab81610190565b81146101b657600080fd5b50565b6000813590506101c8816101a2565b92915050565b6000819050919050565b6101e1816101ce565b81146101ec57600080fd5b50565b6000813590506101fe816101d8565b92915050565b60008060006060848603121561021d5761021c61016b565b5b600061022b868287016101b9565b935050602061023c868287016101b9565b925050604061024d868287016101ef565b9150509250925092565b60008115159050919050565b61026c81610257565b82525050565b61027b816101ce565b82525050565b60006040820190506102966000830185610263565b6102a36020830184610272565b9392505050565b6102b381610190565b82525050565b60006040820190506102ce60008301856102aa565b6102db60208301846102aa565b9392505050565b6000815190506102f1816101d8565b92915050565b60006020828403121561030d5761030c61016b565b5b600061031b848285016102e2565b9150509291505056fea2646970667358221220849728fc4fcdaca4539fe1073e8d92ad9c80229e1697eaeec988a4fee17e78e564736f6c63430008110033",
    "immutableReferences": {},
    "source": "// SPDX-License-Identifier: MIT\npragma solidity ^0.8.0;\n\nimport \"../node_modules/@openzeppelin/contracts/token/ERC20/ERC20.sol\";\n\n/**\n * A basic token for testing the HashedTimelockERC20.\n */\ncontract CheckAmount {\n    function check(\n        address _token,\n        address _sender,\n        uint256 _amount\n    ) public view returns (bool isTransfer, uint256 amount) {\n        return (\n            ERC20(_token).allowance(_sender, address(this)) >= _amount,\n            ERC20(_token).allowance(_sender, address(this))\n        );\n    }\n}\n",
    "sourcePath": "/Users/matsukawatoshiya/programs/solidity/ether-atomic/contracts/CheckAmount.sol",
    "compiler": {
        "name": "solc",
        "version": "0.8.17+commit.8df45f5f.Emscripten.clang"
    },
    "schemaVersion": "3.4.11",
    "updatedAt": "2022-12-18T09:42:49.925Z",
    "networkType": "ethereum",
    "devdoc": {
        "kind": "dev",
        "methods": {},
        "version": 1
    },
    "userdoc": {
        "kind": "user",
        "methods": {},
        "notice": "A basic token for testing the HashedTimelockERC20.",
        "version": 1
    }
}